:020000040800F2
:1000000038040020010100089D0600082D050008A5
:1000100099060008D5030008B90C0008000000008C
:10002000000000000000000000000000BD09000802
:100030000D04000800000000A108000819010008D4
:100040001B0100081B0100081B0100081B01000820
:100050001B0100081B0100081B0100081B01000810
:100060001B0100081B0100081B0100081B01000800
:100070001B0100081B0100081B0100081B010008F0
:100080001B0100081B0100081B0100081B010008E0
:100090001B0100081B0100081B0100081B010008D0
:1000A0001B0100081B0100081B0100081B010008C0
:1000B0001B0100081B0100081B0100081B010008B0
:1000C0001B0100081B0100081B0100081B010008A0
:1000D0001B0100081B0100081B0100081B01000890
:1000E0001B0100081B0100081B010008DFF80CD0F1
:1000F00000F04AF800480047E512000838040020E4
:100100000648804706480047FEE7FEE7FEE7FEE7B1
:10011000FEE7FEE7FEE7FEE7FEE7FEE7450B000829
:10012000ED0000082DE9F05F0546002092469B4651
:1001300088460646814640241BE0284641464746FD
:10014000224600F042F853465A46C01A914110D355
:1001500011461846224600F029F82D1A67EB0108CF
:100160004F4622460120002100F020F817EB00093D
:100170004E41201EA4F10104DFDC484631462A46E8
:100180004346BDE8F09F0000064C074D06E0E068DE
:1001900040F0010394E8070098471034AC42F6D3CE
:1001A000FFF7A8FFD8170008F8170008202A04DB7B
:1001B000203A00FA02F1002070479140C2F120037A
:1001C00020FA03F3194390407047202A04DB203AB9
:1001D00021FA02F00021704721FA02F3D040C2F167
:1001E0002002914008431946704721B1826842F0CD
:1001F0000102826003E0826822F00102826070479F
:10020000014600208A6802F004020AB1012000E0E1
:10021000002070470146C86C80B27047024600203B
:1002200013680B400BB1012000E00020704701462D
:1002300000208A6802F008020AB1012000E00020D4
:100240007047000030B502460020002350680F4C74
:1002500020400D790C6844EA0524204350609068E2
:100260000B4C2040D1E902542C434D7944EA45041B
:1002700020439060D06A20F470000C7C641EE4B2CD
:10028000234340EA0350D06230BD0000FFFEF0FF80
:10029000FDF7F1FFF0B504460D4600200021092DC1
:1002A00011DDE068A5F10A0606EB4607072606FA07
:1002B00007F18843A5F10A0606EB460603FA06F1A4
:1002C0000843E0600CE0206905EB4507072606FAC5
:1002D00007F1884305EB450603FA06F10843206160
:1002E000072A0FDA606B561E06EB86071F2606FAF2
:1002F00007F18843561E06EB860605FA06F1084309
:10030000606322E00D2A0FDA206BD61F06EB86070A
:100310001F2606FA07F18843D61F06EB860605FA64
:1003200006F10843206310E0E06AA2F10D0606EB37
:1003300086071F2606FA07F18843A2F10D0606EB91
:10034000860605FA06F10843E062F0BD816841F0D7
:1003500008018160704721B1826842F4A002826086
:1003600003E0826822F4A00282607047816841F055
:10037000040181607047000010B540210C4800F076
:10038000D3F8642000F026FF4021094800F0CAF8A5
:10039000642000F01FFF4021054800F0C5F86420EC
:1003A00000F018FF4021024800F0BCF810BD00002A
:1003B0000008014010B54021054800F0B5F84FF4A1
:1003C000FA7000F007FF4021014800F0ABF810BDC3
:1003D0000008014000BFFEE708B50121042000F03D
:1003E00061FA4020ADF8000010208DF803000320D2
:1003F0008DF802006946044800F009F840210248DF
:1004000000F090F808BD00000008014070472DE999
:10041000F04102460025002600200023002400278A
:1004200091F803C00CF00F0591F803C00CF0100C0C
:10043000BCF1000F03D091F802C04CEA050591F819
:1004400000C0BCF1000F31D0146800202BE04FF049
:10045000010C0CFA00F3B1F800C00CEA03069E424E
:1004600020D183004FF00F0C0CFA03F7BC4305FAC0
:1004700003FC4CEA040491F803C0BCF1280F06D138
:100480004FF0010C0CFA00FCC2F814C00AE091F81D
:1004900003C0BCF1480F05D14FF0010C0CFA00FC71
:1004A000C2F810C0401C0828D1D31460B1F800C0B5
:1004B000BCF1FF0F34DD546800202EE000F1080C81
:1004C0004FF0010808FA0CF3B1F800C00CEA03067B
:1004D0009E4221D183004FF00F0C0CFA03F7BC436E
:1004E00005FA03FC4CEA040491F803C0BCF1280FA0
:1004F00005D100F1080C08FA0CF8C2F8148091F844
:1005000003C0BCF1480F07D100F1080C4FF00108FF
:1005100008FA0CF8C2F81080401C0828CED35460AA
:10052000BDE8F081416170470161704700BFFEE79F
:1005300070B5044600251FE04FF480711948FFF79D
:10054000F1FF04F0800028B14FF400711548FFF767
:10055000EBFF04E04FF400711248FFF7E3FF00F0F7
:10056000BAF84FF480710F48FFF7DEFF00F0B3F8E0
:100570006006040E681CC5B2082DDDDB4FF48071E7
:100580000848FFF7CFFF00F0A6F84FF48071054848
:10059000FFF7CAFF00F09FF84FF480710148FFF7A2
:1005A000C1FF70BD000C014010B54FF400710B4845
:1005B000FFF7BAFF4FF480710848FFF7B5FF00F06E
:1005C0008AF84FF400710548FFF7ACFF00F083F89C
:1005D0004FF480710148FFF7A5FF10BD000C0140EA
:1005E00010B54FF400710848FFF79CFF4FF480717D
:1005F0000548FFF799FF00F06EF84FF400710248CC
:10060000FFF792FF10BD0000000C014000B587B05D
:1006100001214FF4017000F045F90220ADF81800F7
:1006200000208DF81B0006A91948FFF7F0FE0020F6
:1006300001908DF808008DF809004FF460200390B8
:100640000020049001208DF8140001A91148FFF743
:10065000F9FD0523012211460E48FFF71BFE01217B
:100660000C48FFF7C2FD0B48FFF770FE00BF0948BA
:10067000FFF7DDFD0028FAD10648FFF777FE00BF3F
:100680000448FFF7BDFD0028FAD107B000BD000007
:10069000000801400024014000BFFEE7704770B52C
:1006A000002415E004F1B001C8B200F0D9F8002030
:1006B00000F0D6F8102000F0D3F8002504E0002068
:1006C00000F0DEF8681CC5B2802DF8DB601CC4B2F7
:1006D000082CE7DB70BD4FF4FA7000BF011EA0F1DB
:1006E000010290B2FAD1704708B50121082000F04C
:1006F000D9F84FF44070ADF8000010208DF80300D9
:1007000003208DF8020069462D48FFF780FE4FF464
:1007100040712B48FFF708FF002000E0401C2949EA
:100720008842FBD3AE2000F09BF8D52000F098F86B
:10073000802000F095F8A82000F092F83F2000F00B
:100740008FF8D32000F08CF8002000F089F84020CA
:1007500000F086F88D2000F083F8142000F080F877
:10076000202000F07DF8022000F07AF8A12000F0AF
:1007700077F8C82000F074F8DA2000F071F8122041
:1007800000F06EF8812000F06BF8CF2000F068F8E0
:10079000D92000F065F8F12000F062F8DB2000F0CD
:1007A0005FF8302000F05CF8A42000F059F8A62093
:1007B00000F056F8AF2000F053F8FFF770FF08BDC7
:1007C000000C014020A1070070B504460D4605F15C
:1007D000B001C8B200F044F8102141EA141000F052
:1007E0003FF804F00F0000F03BF870BD2DE9F04138
:1007F00005460F461646A6F1200000F0FF0800BF90
:1008000005EB45014906080E3946FFF7DDFF0024D8
:1008100009E008EB4801064A02EB4101085D00F0DF
:100820002FF8601CC4B2062CF3DBBDE8F081000099
:100830009815000870B505460E4614460CE014F8ED
:10084000012B28466B1CDDB23146FFF7CFFF152D7B
:1008500002DD0025701CC6B220780028EFD170BDE3
:1008600010B50446FFF7A0FE7820FFF761FE0020D8
:10087000FFF75EFE2046FFF75BFEFFF7B1FE10BDFF
:1008800010B50446FFF790FE7820FFF751FE402098
:10089000FFF74EFE2046FFF74BFEFFF7A1FE10BD0F
:1008A0007047000029B1064A92690243044B9A61DD
:1008B00004E0034A92698243014B9A617047000049
:1008C0000010024030B500210022002400232D4DED
:1008D0006D6805F00C0121B1042905D0082923D148
:1008E00005E0294D056022E0274D05601FE0254DFC
:1008F0006D6805F47012234D6D6805F4803402258F
:1009000005EB92421CB9214D554305600BE01D4D8E
:100910006D6805F400351DB11C4D5543056002E0BE
:10092000194D5543056002E0174D056000BF00BF3B
:10093000144D6D6805F0F0010909154D6B5C0568F3
:10094000DD4045600F4D6D6805F4E061090A104D0A
:100950006B5C4568DD4085600A4D6D6805F460514B
:10096000C90A0B4D6B5C4568DD40C560054D6D687F
:1009700005F44041890B074D6B5CC568B5FBF3F589
:10098000056130BD0010024000127A0000093D00F0
:10099000080000201800002010B501210648FFF7CC
:1009A000DAFC00BF02210448FFF738FC0028F9D028
:1009B0000148FFF72FFC10BD0024014070470000E4
:1009C00008B501210820FFF76DFF4FF40060ADF876
:1009D000000010208DF8030003208DF80200694606
:1009E0000148FFF714FD08BD000C014070B5054635
:1009F000002403E0284600F005F8641C322CF9DBE3
:100A000070BD000010B504464FF400610848FFF7C0
:100A10008BFD204600F004FC4FF400610448FFF712
:100A200081FD44F62061081B00F0FAFB10BD0000B8
:100A3000000C014010B500F001F810BD0CB500200D
:100A4000019000903348006840F4803031490860DC
:100A500000BF3048006800F4003000900198401C4E
:100A60000190009818B90198B0F5A06FF1D129480C
:100A7000006800F4003010B10120009001E0002077
:100A800000900098012843D12348006840F01000EE
:100A9000214908600846006820F003000860084605
:100AA000006840F0020008601A4840681949486030
:100AB0000846406848600846406840F480604860E6
:100AC0000846406820F47C1048600846406840F4BE
:100AD000E81048600846006840F08070086000BF79
:100AE0000C48006800F000700028F9D00948406800
:100AF00020F00300074948600846406840F00200C3
:100B0000486000BF0348406800F00C000828F9D195
:100B10000CBD00000010024000200240042808D153
:100B20004FF0E021096941F004014FF0E02211612A
:100B300007E04FF0E021096921F004014FF0E022C5
:100B40001161704710B51348006840F00100114969
:100B5000086008464068104908400E494860084649
:100B600000680E4908400B4908600846006820F4F8
:100B7000802008600846406820F4FE0048604FF47A
:100B80001F008860FFF756FF4FF0006004490860BF
:100B900010BD0000001002400000FFF8FFFFF6FE4D
:100BA00008ED00E021B1828942F40052828104E024
:100BB00082894DF6FF731A408281704702460020F9
:100BC000B1F5007F00D100BF13880B400BB10120AD
:100BD00000E00020704700002DE9F04786B0054690
:100BE0000E460024A24600BFA1460027B08900B1EE
:100BF00000BF2F462C8A4CF6FF700440F088044357
:100C00002C82AC894EF6F3100440B0883189084339
:100C1000718908430443AC81AC8A4FF6FF4004401D
:100C2000B0890443AC8201A8FFF74CFE1F488742FD
:100C300002D1DDF810A001E0DDF80CA0A88900F4D5
:100C4000004040B10AEBCA0000EB0A1031684900CD
:100C5000B0FBF1F807E00AEBCA0000EB0A103168BC
:100C60008900B0FBF1F86420B8FBF0F00401200922
:100C7000642101FB1089A88900F4004040B13220B2
:100C800000EBC900B0FBF1F000F00700044308E0FE
:100C9000322000EB09106421B0FBF1F000F00F00EE
:100CA00004432C8106B0BDE8F08700000038014005
:100CB000C1F308028280704700BFFEE70FB4054B06
:100CC00010B503A9044A029800F02CF810BC5DF896
:100CD00014FB00006D120008300000200FB4084B18
:100CE00010B504A902AA039800F01CF8044602A952
:100CF000002000F048FA204610BC5DF814FB00000C
:100D00008711000802E008C8121F08C1002AFAD1A2
:100D100070477047002001E001C1121F002AFBD17B
:100D2000704700002DE9FF4F8DB00F4605460026A5
:100D300006E025280BD0DDE90F1290476D1C761CCC
:100D400028780028F5D111B03046BDE8F08F002496
:100D5000A246A1460122EC4900E0044315F8013FF8
:100D6000203B02FA03F00842F7D128782A2810D055
:100D70006FF02F022878A0F13001092914D80AEB6E
:100D80008A0102EB410144F0020400EB010A6D1CF0
:100D9000F0E701CF5FEA000A03D544F40054CAF13A
:100DA000000A44F002046D1C28782E2817D115F88B
:100DB000010F44F004042A280ED06FF02F02287887
:100DC000A0F1300109290AD809EB890102EB4101A0
:100DD00000EB01096D1CF2E757F8049B6D1C2878A5
:100DE0006C280FD006DC4C2817D068280DD06A2854
:100DF00014D104E0742810D07A280FD10DE044F407
:100E000000140AE044F4801401E044F440146978CA
:100E1000814202D104F580146D1C6D1C2A786E2A63
:100E20001FD00CDC632A31D004DC002A8BD0582A76
:100E300011D1A3E0642A68D0692A0CD165E0732A35
:100E40002ED004DC6F2A73D0702A04D19BE0752A5F
:100E50006FD0782A6ED01046DDE90F129047761CCD
:100E600050E1C4F30250022806D0032809D0042818
:100E700001CF09D0066045E101CFF117C0E900615B
:100E800040E101CF06803DE106703BE117F8040B1D
:100E90008DF8000000208DF80100EB46012003E0F2
:100EA00057F804BB4FF0FF3061074FF0000102D448
:100EB0000DE008F10101884649450FDA8045F8DB6D
:100EC0001BF808100029F4D108E008F10101884658
:100ED0008142FADB1BF808100029F6D1DDE90F2367
:100EE000AAEB08008146214600F036F9304400EBB9
:100EF000080604E0DDE90F121BF8010B9047B8F17A
:100F00000108F7D221464846F7E00A21C4F302530C
:100F10004FF0000B0891022B04D001CFC117032B17
:100F200009D00AE0FF1D27F00707F7E8020108E0F3
:100F300032E01FE020E000B2C117042B01D140B223
:100F4000C117031E71F1000307DA4FF0000CD0EB5C
:100F50000C006CEB01012D2302E0230504D52B23AB
:100F60008DF82430012303E0E30701D02023F7E7C5
:100F7000984658E00A2110E010210EE010204FF0B2
:100F8000000B08900CE010214FF0000B44F004041B
:100F90004FF00809089103E008214FF0000B089179
:100FA000C4F30253022B04D001CF0021032B06D03F
:100FB00006E0FF1D27F00707F7E8020103E080B213
:100FC000042B00D1C0B24FF0000823072BD5702AA4
:100FD00007D0DDF820C08CF0100C5CEA0B0C05D0BB
:100FE0000EE040238DF82430012308E050EA01038D
:100FF00006D030238DF824308DF825200223984622
:10100000DDF820C08CF0080C5CEA0B0C0BD150EA28
:10101000010301D1630706D530238DF824304FF04A
:101020000108A9F10109582A04D038A20B9208AA94
:101030000A920BE03AA2F9E75B46089AFFF772F8CA
:101040000B9B9B5C0A9A521E0A92137050EA010293
:10105000F2D10A98ADEB000000F1200B600702D539
:1010600024F4803401E04FF00109D94502DDA9EBF9
:101070000B0000E0002000EB0B0141440890AAEBBC
:10108000010AE00306D4DDE90F232146504600F0B3
:1010900063F806444FF0000908E009A911F80900B7
:1010A000DDE90F12904709F10109761CC145F4DB17
:1010B000E0030CD5DDE90F232146504600F04CF843
:1010C000064404E0DDE90F1230209047761C0899B1
:1010D000481E08900029F5DC08E00A980A99007873
:1010E000491C0A91DDE90F129047761CBBF1000103
:1010F000ABF1010BF1DC21465046DDE90F2300F096
:1011000019F806446D1C1BE6092801003031323302
:101110003435363738396162636465660000000033
:10112000303132333435363738394142434445461D
:10113000000000002DE9F041044600251E46174638
:10114000880404D405E039462020B0476D1C641E95
:10115000F9D52846BDE8F0812DE9F0410446002587
:101160001E469046C80301D5302700E0202788049A
:1011700004D505E041463846B0476D1C641EF9D5DC
:101180002846BDE8F0810A68531C0B601070704758
:1011900010B56FF00400FFF7C1FC0A4800680A4967
:1011A000B0FBF1F0094908700846007800EB4001F7
:1011B000C1EBC0104FF6FF7101EAC000044908807E
:1011C00010BD00001C00002000127A000400002066
:1011D000060000200146114A12884A434FF0E023DE
:1011E0005A6100229A611A46126942F001021A619C
:1011F00000BF4FF0E022106900F001021AB100F4C4
:101200008032002AF5D04FF0E022126922F001026C
:101210004FF0E0231A6100229A6170470600002017
:101220000146114A12784A434FF0E0235A610022E6
:101230009A611A46126942F001021A6100BF4FF02A
:10124000E022106900F001021AB100F48032002A95
:10125000F5D04FF0E022126922F001024FF0E023B6
:101260001A6100229A6170470400002070B504469C
:101270000D46E1B20548FFF71BFD00BF40210348C2
:10128000FFF79CFC0028F9D0204670BD00380140D3
:1012900010B502210148FFF745F910BD00080140D3
:1012A00010B502210148FFF73FF910BD00080140C9
:1012B00008B501210420FFF7F5FA0720ADF800007A
:1012C00010208DF8030003208DF8020069460448C1
:1012D000FFF79DF807210248FFF724F908BD000039
:1012E00000080140FFF72EFCFFF752FF00F022F943
:1012F000FFF7FAF9FFF7D3F9FFF7DAFFFFF760FB23
:10130000FFF784F9FFF768F80BA0FFF7D7FC10A0F0
:10131000FFF7D4FC4FF47A70FFF768FB0020124906
:1013200008701249087000F033F804E000F088F803
:101330001420FFF74FFFF9E70D0A53797374656DB9
:1013400020496E697469616C697A65640D0A0000F0
:101350004C6967687420436F6E74726F6C204163D0
:10136000746976650D0A000002000020000000206C
:1013700010B501210148FFF7D5F810BD0008014064
:1013800010B501210148FFF7CFF810BD000801405A
:1013900010B586B0FFF700FB0446FFF780F916484A
:1013A000007808B115A000E016A0024617A101A818
:1013B000FFF794FC01AA00210846FFF73BFA2246FA
:1013C00015A101A8FFF78AFC01AA02210020FFF75E
:1013D00031FAB4F5FA6F01DD12A000E013A0024665
:1013E00014A101A8FFF77AFC01AA04210020FFF74D
:1013F00021FA06B010BD0000000000204F50454EFD
:1014000000000000434C4F5345440000446F6F728E
:101410003A202573000000004C696768743A202563
:10142000640000004441524B000000004252494712
:10143000485400005374617475733A20257300009A
:1014400070B5FFF7A9FA0446B4F5FA6F01DD012083
:1014500000E00020054622480078854234D020482C
:101460000570B4F5FA6F16DDFFF78AFFFFF710FF7E
:101470001C480078002825D04FF47A70FFF7B6FAA0
:101480000020184908701849087018A0FFF716FCCA
:10149000FEF772FF16E0FFF703FFFFF769FF114841
:1014A00000785A280ED04FF4FA60FFF79FFA5A20BE
:1014B0000C49087001200C49087015A0FFF7FEFBCD
:1014C000FEF778FFFFF764FF0649097811B94FF47A
:1014D0007A7101E04FF4FA610846FFF793FA70BDA4
:1014E0000100002002000020000000200D0A4461DD
:1014F000726B20456E7669726F6E6D656E74202D0D
:1015000020446F6F7220436C6F7365640D0A000096
:101510000D0A42726967687420456E7669726F6E53
:101520006D656E74202D20446F6F72204F70656E54
:101530000D0A000000B585B0012144F20400FFF758
:10154000B1F94FF40070ADF8100018208DF81300B9
:1015500003208DF8120004A90D48FEF758FF4FF440
:10156000E13000900020ADF80400ADF80600ADF8C1
:101570000800ADF80C000820ADF80A0069460548DF
:10158000FFF72AFB01210348FFF70CFB05B000BD64
:101590000008014000380140000000000000000089
:1015A000002F000000000700070000147F147F14C4
:1015B00000242A7F2A12006264081323003649554A
:1015C000225000000503000000001C224100000022
:1015D00041221C000014083E08140008083E0808B8
:1015E000000000A060000008080808080000606013
:1015F0000000002010080402003E5149453E000052
:10160000427F4000004261514946002141454B3133
:10161000001814127F10002745454539003C4A49FF
:101620004930000171090503003649494936000671
:101630004949291E000036360000000056360000D9
:101640000008142241000014141414140000412254
:10165000140800020151090600324959513E007C2C
:101660001211127C007F49494936003E4141412216
:10167000007F4141221C007F49494941007F0909FF
:101680000901003E4149497A007F0808087F0000AF
:10169000417F4100002040413F01007F081422416A
:1016A000007F40404040007F020C027F007F040822
:1016B000107F003E4141413E007F09090906003E7E
:1016C0004151215E007F09192946004649494931A7
:1016D0000001017F0101003F4040403F001F2040CA
:1016E000201F003F4038403F006314081463000788
:1016F0000870080700615149454300007F414100DF
:1017000000552A552A55000041417F00000402017E
:10171000020400404040404000000102040000205C
:1017200054545478007F484444380038444444209A
:1017300000384444487F00385454541800087E0947
:1017400001020018A4A4A47C007F0804047800000F
:10175000447D4000004080847D00007F10284400CC
:101760000000417F4000007C04180478007C0804DD
:10177000047800384444443800FC24242418001819
:10178000242418FC007C0804040800485454542005
:1017900000043F444020003C4040207C001C20408E
:1017A000201C003C4030403C004428102844001CD1
:1017B000A0A0A07C004464544C4400000877410081
:1017C0000000007F000000004177080000080408C6
:1017D0000400000000000000F817000800000020CE
:1017E00034000000040D00082C180008340000200C
:1017F00004040000140D00080000000000000000B8
:1018000000000000010203040102030406070809A6
:101810000204060800A24A040000000000000000C4
:0C18200001020304060708090000000094
:04000005080000ED02
:00000001FF
